:1000000000308A000428000003081F3983001930DB
:1000100083169900E6309800D030831298005A3049
:10002000A000FF30A10083161F149F141F159F11FD
:1000300007309C0083131F149F141F159F111F135B
:1000400083121F139F1383169F1383121F1483168B
:10005000091283129412A1122108831687008312B9
:1000600021162108831687008312A1112108831607
:100070008700013083129400003083169400010839
:10008000C73908388100831290010030F8009200CF
:1000900000308316920007309C000508850002306E
:1000A000F700F70B5128542800001C0883120D1389
:1000B00083169D0183128C1E5B281A08A000200B5A
:1000C00015298C1E61281A08A0002008413C031D38
:1000D0006E2883160610831206147F2820084C3CD5
:1000E000031D772883168610831286147F288316B3
:1000F00006108312061083168610831286108C1E3B
:100100007F281A08A0002008423C031D8C28831673
:100110000611831206159D2820084D3C031D9528C5
:1001200083168611831286159D2883160611831265
:10013000061183168611831286118C1E9D281A08BB
:10014000A0002008433C031DAA2883160612831230
:100150000616BB2820084E3C031DB32883168612C2
:1001600083128616BB288316061283120612831684
:100170008612831286128C1EBB281A08A000200843
:10018000443C031DC8288316061383120617D9287A
:1001900020084F3C031DD12883168613831286172F
:1001A000D928831606138312061383168613831227
:1001B00086138C1ED9281A08A0002008453C031D70
:1001C000E6288316051083120514F7282008503CF2
:1001D000031DEF288316851083128514F7288316D4
:1001E00005108312051083168510831285108C1E4E
:1001F000F7281A08A0002008463C031D042983168E
:1002000005118312051515292008513C031D0D29E0
:1002100083168511831285151529831605118312FE
:0E022000051183168511831285115B2863007A
:02400E003A3F37
:00000001FF
;PIC16F877A
;CRC=603C  CREATED="03-nov-17 15:44"
