:1000000000308A00A0280000831605108312051412
:10001000831685108312851083160511831205112E
:10002000061E15284130A0001C28861E1A284C30B8
:10003000A0001C283130A000061F21284230A1005A
:100040002828861F26284D30A10028283230A100FC
:1000500083160510831205108316851083128514EC
:100060008316051183120511061E39284330A2009C
:100070004028861E3E284E30A20040283330A20081
:10008000061F45284430A3004C28861F4A284F30BD
:10009000A3004C283430A3008316051083120510EA
:1000A000831685108312851083160511831205159A
:1000B000061E5D284530A4006428861E6228503044
:1000C000A40064283530A400061F69284630A50026
:1000D0007028861F6E285130A50070283630A50084
:1000E000B828AA0183168610831286100830F800FB
:1000F00079280000F8179328F8132908AA06A90CF4
:1001000003188614031C8610781793287813F80BAD
:100110007D288A2800002A1886142A1C8610F816C2
:100120009328F81286141B308400840B9528982895
:100130000000F81B7C28781B8628F81A91280800F4
:1001400003081F3983008316861083128614073034
:100150009F0083133130A0003230A1003330A20061
:100160003430A3003530A4003630A500A6010428A1
:100170000130A90071202030840083130030000476
:100180000319D228A8010408A7002810831B2814EB
:100190000008A900712027088400831328188317FA
:0801A000840ABE28B7286300A1
:02400E000B3F66
:00000001FF
;PIC16F628A
;CRC=D965  CREATED="03-nov-17 15:43"
